:020000040800F2
:10000000806201209D010008AF270008A1020008BE
:10001000AD270008D70A0008F13D000800000000E5
:10002000000000000000000000000000AF01000818
:10003000430B000800000000EF010008ED38000845
:10004000B7010008B7010008B7010008B7010008B0
:10005000B7010008B7010008B7010008B7010008A0
:10006000B7010008B7010008B7010008B701000890
:10007000B7010008B7010008B7010008B701000880
:10008000B7010008B7010008B7010008B701000870
:10009000B7010008B7010008B7010008B701000860
:1000A000B7010008213A0008B7010008B7010008AD
:1000B000B7010008B7010008B7010008B701000840
:1000C000B7010008B7010008B7010008B701000830
:1000D000B7010008693D0008B7010008853D000828
:1000E000B7010008B7010008B7010008B701000810
:1000F000B7010008B7010008B7010008B701000800
:10010000B7010008B7010008B7010008B7010008EF
:10011000113B0008293B0008B7010008B70100089F
:10012000D90A0008B7010008B7010008B7010008A4
:10013000B7010008B7010008B7010008B7010008BF
:10014000B7010008B7010008B7010008B7010008AF
:10015000B7010008B7010008B7010008A13D000879
:10016000B7010008B7010008B7010008B70100088F
:10017000B7010008B7010008B7010008000000003F
:10018000B7010008B7010008DFF80CD000F04CFC04
:10019000004800474D0A0008806201200648804759
:1001A00006480047FEE7FEE7FEE7FEE7FEE7FEE75C
:1001B000FEE7FEE7FEE7FEE7113A000889010008C6
:1001C000EFF3108072B6704780F310887047424A90
:1001D0001368012B04D04FF0010313603F4A1060F5
:1001E0003F4A11603F484FF0805101607047EFF384
:1001F000108272B63848016851B34FF000010160B7
:100200003648016891B1EFF309811EF0100F08BF65
:1002100021ED108B21E9F00F4FF000041EF0100FBC
:1002200008BF012441F8044D006801602C490968A9
:10023000096808C9B1E8F00F002B18BFB1EC108BAA
:1002400081F309884EF0100E002B18BF2EF0100E0F
:1002500082F310884EF0040E704721490860EFF3D6
:10026000148222F0040282F314881C494FF000002B
:10027000086019494FF0010008601B481B49D0F87D
:10028000002041EA0201016016484FF080510160F0
:1002900017480068006880F3088861B662B6704746
:1002A0001EF0040F0CBFEFF30880EFF3098020E984
:1002B000F00F40F804ED40F804ED1EF0040F0CBF01
:1002C00080F3088880F3098800B522F0E5FC5DF82A
:1002D00004EB4EF0040E7047705E0120E45A0120DA
:1002E000EC5A012004ED00E020ED00E00000FFFFEB
:1002F00008ED00E02DE9F05F0546002092469B46A0
:1003000088460646814640241BE02846414647462B
:10031000224600F0A3FA53465A46C01A914110D320
:1003200011461846224600F08AFA2D1A67EB01089A
:100330004F4622460120002100F081FA17EB000908
:100340004E41201EA4F10104DFDC484631462A4616
:100350004346BDE8F09F40EA01039B0703D009E054
:1003600008C9121F08C0042AFAD203E011F8013BA1
:1003700000F8013B521EF9D27047D2B201E000F8FA
:10038000012B491EFBD270470022F6E710B5134639
:100390000A4604461946FFF7F0FF204610BD10B587
:1003A000044604E00B7800F8013B03B1491C521EDF
:1003B000F8D2204610BD421C10F8011B0029FBD1C9
:1003C000801A704710B5002200E0521C835C8C5CE0
:1003D000A34201D1002BF8D1D8B2E1B2401A10BD2E
:1003E00030B504460020034600E05B1C934203D274
:1003F000E05CCD5C401BF8D030BD034611F8012B0A
:1004000000F8012B002AF9D11846704730B505468F
:100410000020034600E05B1C934205D2EC5CC85C04
:10042000201A01D1002CF6D130BD2DE9FE4F8046B7
:1004300081EA0300C00F0C46009021F0004123F038
:100440000045B8EB0200A94105D24046214690463E
:100450001C460B46024623F00040104347D0270DB0
:10046000C7F30A00C3F30A510290401A01904028D2
:100470006BDAC3F3130040F4801B0098924620B15E
:100480000023D2EB030A63EB0B0B01985946C0F132
:100490004002504600F0D3F906460D4650465946F4
:1004A000019A00F0EBF910EB08006141002487EAA3
:1004B000115284EAE7731A4340D0009A62B3019A5A
:1004C000012A4FEA075215DC001B61EB02014FF0D5
:1004D000004202EA0752CDE90042001C41F58011BA
:1004E00032462B4600F022FA03B0BDE8F08F4046BA
:1004F0002146F9E7001B61EB0201001C41F5801366
:1005000000185B412018A2F5001747EB030140EAF1
:10051000D570B6196D4111E06D084FEA360645EA0F
:10052000C0754FEA0752001B61EB0201001C41F548
:10053000801149084FEA30000019514132462B46DC
:1005400003B0BDE8F04F00F0E2B90098012240008E
:100550000023D0EB020263EBE073009821464FEAE0
:10056000E074B8EB000061EB0401E9E783F00043BD
:100570005BE781F0004158E72DE9FE4F81EA030473
:1005800004F0004421F0004100944FF0000B23F0F0
:10059000004350EA01045ED052EA03045BD0C3F387
:1005A0000A54C1F30A552C44A4F2F3340194A0FB7D
:1005B0000254C1F3130141F48011C3F3130343F454
:1005C000801301FB024400FB034E840A970A44EAAD
:1005D000815447EA8357A4FB076802958D0A05FBFF
:1005E00007854FEA932C04FB0C542705029D4FEA24
:1005F000065847EA1637B5EB08056EEB070C870E71
:10060000920E47EA811742EA8312A7FB0201B6EB7A
:100610000B0164EB00042B0D43EA0C335E1844EB32
:100620001C50DA465146E7FB0201C5F313044FEABA
:100630000B3343EA14534FEA0432019C43EA0603A6
:10064000A4F10C040294009CCDE900B400F06EF912
:1006500003B0BDE8F08F00200146F9E72DE9F04D29
:1006600081EA030404F0004B21F0004514464FF0EA
:10067000000A23F0004150EA050220D054EA0102AA
:100680001DD0C5F30A570246C5F31303C1F3130087
:10069000C1F30A5640F4801543F48013A7EB060813
:1006A000101BD64608F2FD3873EB050002D308F1A3
:1006B000010801E092185B41B8F1000F03DA002055
:1006C0000146BDE8F08D00204FF4801106468446B7
:1006D0000EE0171B73EB050705D3121B63EB050335
:1006E00006434CEA010C49084FEA300092185B417E
:1006F00050EA0107EDD152EA030012D082EA040069
:1007000083EA0501084305D0101BAB4106D2012244
:10071000002306E000224FF0004302E06FF00102E8
:1007200053101AEB06004CEB085110EB0A0041EB9A
:100730000B01BDE8F04D00F0EAB80EB5C10F80EA3C
:10074000E0700844CA07002140F233438DE80E00F0
:100750000A460B4600F0EAF803B000BD0EB540F2C1
:10076000334102910021CDE900110A460B4600F009
:10077000DDF803B000BD70B5C1F30A5201F00045C9
:100780000024C1F3130140F2FF3341F480119A4277
:1007900001DA002070BD40F233439A42A2F23342A4
:1007A00003DC524200F05AF800E090402C43F1D0B4
:1007B000404270BD00F0004230F000400AD0C10D50
:1007C00001F56071C0F3160042EA0151C20840070A
:1007D0001143704700200146704701F0004330B4D8
:1007E00021F0004150EA010206D00A0DA2F5607224
:1007F000C1F31301002A02DC30BC00207047440F13
:1008000044EAC104C100E01830BC00EBC25000F063
:1008100047B830B50B46014600202022012409E0EC
:1008200021FA02F59D4205D303FA02F5491B04FAA9
:1008300002F52844151EA2F10102F1DC30BD202A88
:1008400004DB203A00FA02F1002070479140C2F127
:10085000200320FA03F3194390407047202A04DB59
:10086000203A21FA02F00021704721FA02F3D04029
:10087000C2F120029140084319467047202A06DB46
:10088000CB17203A41FA02F043EAE07306E041FA5E
:1008900002F3D040C2F1200291400843194670474C
:1008A0000029A8BF7047401C490008BF20F0010084
:1008B000704710B4B0FA80FC00FA0CF050EA010462
:1008C00004BF10BC704749B1CCF1200421FA04F4F4
:1008D00011FA0CF118BF012121430843A3EB0C01CD
:1008E000CB1D4FEA00614FEA102042BF002010BC30
:1008F000704700EBC35010440029A4BF10BC7047E0
:10090000401C490008BF20F0010010BC704710B522
:10091000141E73F1000408DA401C41F10001921822
:100920005B411A4301D120F0010010BD2DE9F04DCB
:1009300092469B4611B1B1FA81F202E0B0FA80F220
:1009400020329046FFF77BFF04460F4640EA0A003C
:1009500041EA0B0153465A46084313D0114653EA65
:10096000010019D0C8F140025046FFF777FF054655
:100970000E46504659464246FFF761FF084305D0F0
:10098000012004E020463946BDE8F08D00200543F3
:1009900046EAE0762C4337430A986305E40AA0EB65
:1009A00008000022FD0A44EA47540A3002D500201C
:1009B0000146E9E7010510196941DDE9084500191B
:1009C0006941BDE8F04DA2E7C1F30A52C1F313013A
:1009D00040F2FF3341F480119A4202DA00200146CE
:1009E000704740F233439A42A2F2334202DC524251
:1009F000FFF734BFFFF723BF30B5041E71F10004C9
:100A000004DB4FF00044404264EB0101141E73F11B
:100A1000000405DB1C464FF00043524263EB040325
:100A2000994208BF904230BD064C074D06E0E06891
:100A300040F0010394E8070098471034AC42F6D325
:100A4000FFF7A6FBA8C40308C8C4030880B523F0B9
:100A5000E7FA002080BD0146806B036C026C13F046
:100A6000500F07D0D20648BF00F0E6B8806BC26CCA
:100A70000846104742F40071016401688A6812F068
:100A8000405F01D000F0D6B8027E002AFAD1CA6ACF
:100A900012F4700F02D08A685205F3D44A6822F02B
:100AA00020024A60016C21F480710164016CC90468
:100AB000E8D4016C41F00101016400F0BBB8806B27
:100AC00040210164416C41F00401416400F0B4B87C
:100AD000806B00F0B0B8FEE780B522F091FACD4807
:100AE00000F092FABDE8804022F096BA10B5016895
:100AF0006FF00F02182308A452FA81F2B2FBF3F34D
:100B0000E35C40F2FF34A1435F2A88BF0431C0E9AF
:100B10001613084610BD00BF00061016000610167A
:100B2000B0B50468806825684028084625F480250B
:100B30002560636008BF1046A06008BF0A46E260F7
:100B4000B0BD7047EFF3108072B6FEE7F8B5002233
:100B5000009290F83C20012A01D1022168E0012294
:100B600080F83C200A680A2A09D393B25B0013FA82
:100B700082F3A3F11E04036803F10C0504E003688B
:100B800002EB420403F1100507262F68A64027EA6E
:100B900006062E608E6806FA04F42E6834432C6034
:100BA0004C68062C05D804EB840403F13401053CA1
:100BB0000BE004EB84050C2C87BF03F12C01A5F19D
:100BC000410403F13001A5F123041F250E68A5405F
:100BD00026EA05050D6095B205FA04F40D682C436C
:100BE0000C606349A1F54174A3421ED1122A04D1BD
:100BF0000A6842F480020A6017E022F00103102B19
:100C000013D10B68102A43F400030B600DD1CD49BA
:100C1000CD4A0968B1FBF2F101EB81014900009175
:100C2000009911B100990139F9E7002180F83C10D1
:100C30000846F8BD7047704770470000002841D053
:100C400070B50446006C30B9204600F099F80020D9
:100C500084F83C006064206CC00635D4206C41F2FE
:100C600002118843424902302064086820F4403071
:100C7000086094E80D0025690E6832430A604168F7
:100C800021F480714160416841EA05214160416879
:100C900021F04071416041681943364B41608168E1
:100CA00021F400618160E16882681143816081689C
:100CB00021F070618160A26A81689A4206D121F0B8
:100CC00040510CE00120704701204CE0114381604D
:100CD000816821F040518160E16A8268114381603E
:100CE000816821F00201816094F82020217E8368D0
:100CF00043EA4101816041686AB141F400611E4AE2
:100D00004160416821F460414160616A02EB413118
:100D10004268114301E021F400614160174BC16A50
:100D200021F47001C162E269616903EB0252C36A96
:100D30001A43C262826822F40072826094F8302002
:100D4000836843EA42228260826822F48062826081
:100D5000826842EA81210122816000206064216C66
:100D600062F301012164002184F83C1070BD00BFD2
:100D7000042301400100000F00E0FFFF0000F0FF2E
:100D8000F0B587B00446016873480026CDE90566D2
:100D900081423AD11E49019600F568404A6942F401
:100DA00080724A614A6902F480720192019A019646
:100DB0000A6842F004020A60096801F00401019126
:100DC0000321049603910F210291019902A900F0D9
:100DD0007DFA104D104F4FF480704FF400514FF4D6
:100DE00000624FF48063C5E906102846C5E908662D
:100DF000C5E90076C5E90266C5E9043200F0B2F93A
:100E000008B1FFF79FFEAC63A56307B0F0BD00BF5C
:100E10003038024040070020106402407CB5044690
:100E20000020019094F83C00012804BF02207CBD02
:100E300013460A460120216884F83C008868C007F0
:100E400010D18868404D40F001008860C4480068B7
:100E5000B0FBF5F000EB40000190019810B1019853
:100E60000138F9E78868C00503D5886820F48070E8
:100E700088608D68206CED0707D140F01000206479
:100E8000606C40F0010060645AE040F20175A843D4
:100E900000F5807020644868400504D5206C012569
:100EA00065F30D302064206C00252A4EC00444BF39
:100EB000656C25F0060565646FF0220500200D6065
:100EC0004D6845F080654D6084F83C001F4DA06B77
:100ED000C5641F4DC0E90F658D6845F480758D6050
:100EE0004C3100F0C3F91C492068D1F80423D20624
:100EF0000AD0884224D1886810F0405F20D18868E9
:100F000040F0804088601BE0884211D0134A904234
:100F10000AD0134A904213D1D1F80423D20607D045
:100F200001F5007290420BD1D1F80413C90607D421
:100F3000816811F0405F03D1816841F08041816098
:100F400000207CBD5C00002040420F00BF0A00086A
:100F5000D10A0008570A0008002001400022014081
:100F60000021014070B5866D044600F089FA0546FF
:100F700094F8350002281ED12068216C026822F006
:100F800016020260426922F08002426109B9A16C36
:100F900019B1016821F008010160016821F0010127
:100FA00001600068C0070AD000F06AFA401B0528FB
:100FB0000FD82068F5E78020606501200EE0E06D25
:100FC0003F2101FA00F0B060012084F835000020D4
:100FD00004E020206065032084F83500002184F8B7
:100FE000341070BD90F83510022909D1052180F820
:100FF00035100068016821F0010101600020704790
:101000008021416501207047F8B504460020544A0C
:1010100008210090D4E9166015683768814039428C
:101020000CD0226813685B0708D5136823F004030B
:101030001360B160616D41F0010161650121814082
:10104000394208D022685269120604D5B160616D38
:1010500041F00201616504218140394208D02268D3
:101060001268920704D5B160616D41F004016165B9
:1010700010218140394217D020680268120713D529
:10108000B16002680168520306D4C90506D401683C
:1010900021F00801016001E0080301D4216C00E0A7
:1010A000A16C09B120468847E16D202000FA01F2C9
:1010B0003A4233D020680368DB062FD5B26094F83B
:1010C00035300268052B15D122F016020260426904
:1010D00022F080024261226C0AB9A26C1AB1026845
:1010E00022F0080202603F208840B06001F075FBEA
:1010F000216D2FE00168520308D4C9050AD40168A4
:1011000021F01001016001F068FB03E0080301D445
:10111000616C00E0E16B09B120468847606DF0B179
:10112000606DC00715D005214FF4165084F83510B6
:10113000B5FBF0F021680A6822F001020A60009A0B
:1011400001328242009202D80A68D207F7D101F038
:1011500044FBE16C19B12046BDE8F8400847F8BDF2
:101160005C0000202DE9F041044600F089F9ACB1A3
:101170000546022084F835000020216884F83400F8
:10118000086820F0010008600868C00709D000F076
:1011900077F9401B052839D82168F5E70120BDE81B
:1011A000F0810868271D304AE8CF00EA020ED4E932
:1011B000050CD4E9072843EA0E032B4333433B4392
:1011C0001843636A40EA0C00104340EA0802042B0B
:1011D00004D1D4E90B05104340EA05020A60042B50
:1011E000486920F0070040EA03022CD1D4E90A63E1
:1011F000324343B3BCF5005F0CD0BCF1000F18D1F3
:10120000022E19D0012E0ED0002E14E00325202727
:10121000032024E0032E16D8012540270120DFE813
:1012200006F01E0B1E02A3F1C070B0FA80F0400958
:1012300004E0032E03D306D1C3F3006018B10125E7
:10124000402701200BE020464A61FFF74FFCE16D8B
:101250003F220027012502FA01F181600020676525
:1012600084F83550BDE8F0813F8010F0B0B501F052
:1012700040FC28D00120A56D84F8340094F8350096
:1012800001281DD1022084F8350000206065204629
:10129000FFF746FCE26D3F232068216C03FA02F25F
:1012A000AA60026842F01602026019B1016841F0BA
:1012B00008010160016841F0010101600020B0BD3A
:1012C000002084F834000220B0BD00002DE9FC4F5E
:1012D000634A08244FF0010B4FF000094FF0000A59
:1012E0009042604A08BF072402444FEAB223072B0A
:1012F00038BF4FEAB22400940023202B08BFBDE87A
:10130000FC8F0F680BFA0AF6374200F0A2804F6894
:1013100007F00308A8F10104012C18D803228568FE
:101320004FEA4A0E02FA03F425EA040CCD689D4008
:1013300045EA0C058560C7F3001505FA0AFC456807
:10134000B54345EA0C056FEA040C45600BE0032445
:101350009E469C406FEA040CB8F1030F03D19E46F1
:101360004FF0030820E0C4688D6804EA0C0405FA15
:101370000EF52C43B8F1020FC46015D109F01C041E
:101380000F2202FA04F86FF0030202EA5A07074438
:101390003D6A25EA08080D6905FA04F444EA0804E0
:1013A0003C624F6807F00308056808FA0EF405EA86
:1013B0000C052C4317F4403F04604AD000222AF069
:1013C000030701925E4A146844F480441460146870
:1013D0000F2204F48044019409F00C0402FA04FC86
:1013E000214A019D96461744214ABD589046009ACD
:1013F00025EA0C0502FA04F42C4347F80840DEF80D
:1014000008404F68FA0244EA0605184A58BF24EA21
:101410000605CEF80850BD029446126842EA06045A
:1014200058BF22EA0604CCF80040BD03DEF80420D1
:1014300042EA060458BF22EA0604CEF80440FD033F
:10144000DEF8002042EA060458BF22EA0604CEF87D
:10145000004009F1040902330AF1010A4DE700BF17
:10146000001C02400000FEBF003C01400C3C01405B
:1014700008FCFFFF002A08BF0904816170470000D3
:1014800006480068704700BF0348044900780A68AE
:1014900010440860704700BF040000207C5E0120FB
:1014A00080B50B48016841F400710160016841F4A6
:1014B00080610160016841F480710160032000F0E7
:1014C00095F80F2000F006F800F042F8002080BDEB
:1014D000003C0240B0B586B001461920002200242D
:1014E00000F05EF8192000F04FF8154801940168EB
:1014F00041F0010101606946006800F001000190BF
:10150000019801A800F00CF900F034F90F4D4000EB
:101510000C490D4B40F2E732B0FBF5F0C1E9024255
:101520000C610138C1E90030084600F023FC08B125
:10153000012002E0034800F02DFC06B0B0BD00BF62
:1015400044380240F80700200000014040420F00EC
:1015500082B000200B4901904A6842F480424A6000
:101560004A6802F480420192019A0090086840F0B3
:1015700080500860086800F080500090009802B029
:10158000704700BF40380240002806D4734601F07F
:10159000B5FA9E46014A42F82010704700E100E08B
:1015A000F0B5184B4FF0FF361C68C4F30224E51E5B
:1015B00084F0070438BF002506FA05F7BA43042C67
:1015C00028BF042406FA04F4A14300F00F04A94044
:1015D000043C11432344044A09010C33B0F1FF3F9A
:1015E000C8BF83181970F0BD00E400E005494FF64C
:1015F000FF030A681A4060F30A2203481043086098
:10160000704700BF0CED00E00000FA052DE9F04145
:10161000002857D03F4B04468846D3F8000400F01A
:101620000700884204D283F8008401F0D0F849D141
:101630002068810711D5410703D5996841F4E0512D
:101640009960010703D5996841F460419960A168E8
:101650009A6822F0F00211439960C0072BD101F083
:10166000B6F804D983F8008401F0B1F82AD12068D3
:10167000410705D5E1689A6822F4E0521143996068
:10168000000706D52069996821F4604141EAC0004D
:1016900098601C4600F07EF8A1681F4AC1F3031150
:1016A000515CC840384908601C480068FFF712FFC9
:1016B0000020BDE8F0816068811E022905D219680A
:1016C000890107D40120BDE8F08101281DD11968E6
:1016D0008903F7D599681D4621F0030108439860F6
:1016E000FFF7CEFE064641F288376068A9682B46B0
:1016F00001F00C01B1EB800FB1D0FFF7C1FE801BF0
:10170000B842F2D90320BDE8F08119688907D9D51C
:10171000E0E700BF00380240C87B02080800002054
:1017200010B50F224FF4E0540260184A136803F01A
:1017300003034360136803F0F0038360136803F44A
:10174000E053C360136804EAD3030361D2F8F803DB
:1017500000F00700086010BD0B480068704700BF2C
:1017600009480A490A4A00680968C1F38221515CA4
:10177000C840704704480549054A00680968C1F334
:101780004231515CC84070475C000020083802407C
:10179000D87B020810B5134C606800F00C011248A9
:1017A000082903D004291CD1104810BD21682368E2
:1017B00001F03F0221685B02C1F3881105D4A1FB4F
:1017C00000010023FEF796FD03E008484843B0FB04
:1017D000F2F021680222C1F3014102EB4101B0FBAA
:1017E000F1F010BD043802400024F40000127A0029
:1017F0002DE9FC4100285FD004460078C24EC007A6
:101800000BD0B06800F00C00042840F08E803068E7
:10181000800302D5606800284ED02078800718D554
:10182000B06810F00C0F07D001F0B6FB40F09580C7
:101830007068400200F191803068800702D5E0684E
:10184000012839D12069316821F0F80141EAC0004E
:1018500030602078000732D42078400742D4A7694E
:101860003FB301F099FB40F0A980012F24D0E1693A
:10187000706800F480028A421ED1216A00F03F02A3
:101880008A4219D147F6C071626A0140B1EB821FEA
:1018900012D1A16A9F4A02EBC13100F440326FF3CA
:1018A0000F018A4208D1E16A00F07060B0EB016F6D
:1018B00002D10020BDE8FC810120BDE8FC81616906
:1018C000924800296AD00121C0F8801EFFF7D8FD98
:1018D0000546706F8007BFD4FFF7D2FD401B02287A
:1018E000F7D9C9E0306C10F080580AD1002001907F
:1018F000306C40F080503064306C00F080500190CB
:101900000198834F3868C0053AD4386840F4807035
:101910003860FFF7B5FD05463868C00530D4FFF7DD
:10192000AFFD401B0228F7D9A6E001F035FB03D13B
:10193000706840023FF56BAF6068B0F5803F07D03C
:10194000B0F5A02F40F08280306840F480203060F5
:10195000306840F48030306082E0E06800284CD08D
:101960006A4801210160FFF78BFD0546306880075A
:101970003FF568AFFFF784FD401B0228F6D97BE0F6
:10198000A068012805D0052848D1306F40F0040038
:101990003067306F40F00100306749E00021C0F847
:1019A000801EFFF76DFD0546706F80077FF554AF11
:1019B000FFF766FD401B0228F6D95DE05349002081
:1019C00088460866FFF75CFD0546022F0AD14746A8
:1019D0003068800153D5FFF753FD411B03200229D6
:1019E000F6D967E7306880017FF563AFFFF748FD00
:1019F000411B03200229F5D95CE74448002101601E
:101A0000FFF73EFD0546306880077FF522AFFFF700
:101A100037FD411B03200229F5D94BE7316F002820
:101A200021F001013167316F21F00401316744D0A9
:101A3000FFF726FD054641F28837306F80074BD40B
:101A4000FFF71EFD401BB842F7D915E031680028AA
:101A500021F480313160316821F48021316044D03B
:101A6000FFF70EFD0546306880033FF5D6AEFFF761
:101A700007FD401B6428F6D90320BDE8FC811C3417
:101A80001FCC0843234940EA821001EBC33140EAEE
:101A900004606FF30F010843706001203866FFF7A0
:101AA000EFFC0446306880013FF503AFFFF7E8FC28
:101AB000011B03200229F5D9FCE6FFF7E1FC0546EE
:101AC00041F28837306F800706D5FFF7D9FC411BFC
:101AD0000320B942F6D9EDE6B8F1000F7FF4BFAEAE
:101AE000306C20F080503064B9E6FFF7C9FC054641
:101AF000306880037FF591AEFFF7C2FC411B0320E5
:101B00006429F5D9D6E600BF0038024000004742FC
:101B1000007000400000FFFF70B538B10446406A15
:101B200030B10020206104F1140007E001254BE0F2
:101B30006068B0F5827F03D004F11C0000210160D1
:101B40000025A56294F8510020B9204684F8505031
:101B500000F03CF8022084F8510094E80F0001F4F2
:101B6000827102F404420668114403F400621144D5
:101B700026F040060660226902F002021144626902
:101B800002F001021144A26902F400731944E369EE
:101B900003F038031944236A03F080031943A36A4E
:101BA00003F4005319430160042101EA1241626AFF
:101BB00002F0100211444160C16921F40061C16169
:101BC0000120656584F85100284670BDFEB50168A6
:101BD0001448814223D10021134A00F5504001915D
:101BE000536943F480535361536903F48053019361
:101BF000019B0091136843F001031360126802F027
:101C000001020092052205920322CDE9031202216E
:101C10000291A0210191009901A9FFF757FB06B09D
:101C200080BD00BF00300140303802402DE9F8434C
:101C300001F060F904BF0220BDE8F8834FF001090C
:101C40001D4616460F4684F85090FFF719FC804653
:101C500094F85100012844D1002F44D0002E42D0E6
:101C6000032084F8510000206065E686A68627637D
:101C7000A087A063C4E91000E087A1682068B1F5DF
:101C8000004F07D1016821F040010160016841F473
:101C9000804101600168490601D401F0EEFCE26870
:101CA0006168B2F5006F20D109B1012E01D101F0B8
:101CB00041FA6E1CE08E90B301F04DFA08D4FFF7A4
:101CC000DFFB002EF6D0A0EB0800A842F2D337E0ED
:101CD000216B31F8022BC2602163E08E0138E0866F
:101CE000E8E702202DE001202BE009B1012E02D10E
:101CF000397801F081FB6E1CE08E80B101F02BFA87
:101D000008D4FFF7BDFB002EF6D0A0EB0800A842D8
:101D1000F2D315E0216B097801F06EFBECE7204669
:101D20002946424601F060FD08B120206065A068A8
:101D300008B901F055FA606D002818BF012000E0D5
:101D4000032001F09FB80000411E0020B0EB116F8E
:101D50001CBF01207047044AF023516003490B70F7
:101D6000072190601160704710E000E023ED00E073
:101D70007047704758B110B501F0BAFB03D101F0BC
:101D800015FA00F006F801F0C5FC00F0BEBE012017
:101D90007047704790F83D1001291CBF0120704723
:101DA000022180F83D100068C168B0F1804F41F019
:101DB0000101C16014D01049884211D00F498842F6
:101DC0000ED00F4988420BD00E49884208D0624994
:101DD000884205D00C49884202D00C49884204D17F
:101DE000724601F021F8964603D0724600F0B9FF22
:101DF00096460020704700BF0004004000080040E5
:101E0000000C004000180040004001400004014068
:101E1000704710B5044600680169890712D5C1688A
:101E200089070FD56FF002010161012121778069D7
:101E3000800702D001F0C1FB01E001F0A4FA00200C
:101E4000207720680169490713D5C168490710D573
:101E50006FF00401016102212177806910F4407F55
:101E600002D001F0AAFB01E001F08DFA00202077FA
:101E700020680169090712D5C16809070FD56FF0FD
:101E80000801016104212177C069800702D001F0B7
:101E900094FB01E001F077FA0020207720680169C7
:101EA000C90613D5C168C90610D56FF010010161CC
:101EB00008212177C06910F4407F02D001F07DFB3A
:101EC00001E001F060FA0020207720680169C9076D
:101ED00009D0C168C90706D06FF001010161204631
:101EE00000F02CF820680169090609D5C1680906C7
:101EF00006D56FF0800101612046FFF739FF2068A9
:101F00000169490609D5C168490606D56FF0400147
:101F10000161204600F022F820680169890602D597
:101F2000C168890600D410BD6FF020010161204610
:101F3000BDE81040FFF71DBF7047704780B50068CF
:101F40000549884218BF80BDFFF79EFA0120BDE811
:101F500080401EF031BD00BF000001407047704757
:101F6000704700007CB5044600680268C168456996
:101F700013073FD001F4907605F0010576193DD0A6
:101F8000D60705D0CE0503D5266C46F0010626649B
:101F9000560704D51DB1266C46F002062664960746
:101FA00004D51DB1266C46F004062664002B07D527
:101FB00001F020035B1903D0236C43F00803236472
:101FC000236C002B00F0C480920605D5890603D54A
:101FD000204601F0E1FD20684069216C00F04000DE
:101FE00001F00801401846D12046FFF7B9FF002054
:101FF0002064ADE0930601D58B0648D4236B012BFA
:1020000003D1D30601D5CB0646D4130601D50B0662
:1020100011D4520640F19C80490640F19980C16874
:1020200021F04001C160202084F83D002046BDE839
:102030007C4000F040BA94F83D10212940F088809F
:10204000A168B1F5805F03D12169002900F09C806F
:10205000216A4A1C226209784160E18C0139E184DD
:10206000090475D1C16821F08001C160C16841F0E7
:102070004001C1607CBD204601F06AFD20684169D5
:10208000490649D500F058FD3AD02068FAE72046C5
:10209000BDE87C4001F080BD0021019100F092FE7E
:1020A000416949063DD4E18DA28DE38D002B4FD0CF
:1020B000511A0A044CD050E8030F226820F49070A3
:1020C00042E803030BB12068F5E7206850E8050FEC
:1020D000226820F0010042E80503002BF5D1202002
:1020E00084F83E0000202063206850E8030F226837
:1020F00020F0100042E80303002BF5D189B23EE046
:10210000A06B48B124490165FEF76CFF00B3A06BDA
:10211000016DBDE87C4008472046BDE87C40FFF7E4
:102120001FBFA26B11684B689DB28DB1A18D8D420E
:102130000ED2E385D269B2F5807F1DD050E8030F3F
:10214000216820F4807001F0D8F902D02068F5E70A
:102150007CBD00F049FBFCD1206800F0EDFCFBD118
:10216000202084F83E000020206300F01AFFFCD1FC
:10217000A06BFEF7F7FEA18DE08D081A81B2204614
:10218000BDE87C40FFF7EBBE216A31F8022B6FF30C
:102190005F222162426060E7453B000890B110B5C4
:1021A000044690F83D0008B901F00AFA01F021F860
:1021B0002068016921F490410161416921F02A01FF
:1021C00001F060BA012070472DE9F04387B0044662
:1021D00002A81421FEF7D8F820688249884230D03E
:1021E000814988424DD08149884270D080498842D7
:1021F00000F092807F49884200F0D3807E49884277
:1022000040F0ED800020E14901900A6942F400228B
:102210000A610A6902F4002200F0B2FE0821069168
:102220000321CDE904010220CDE90210019802A9A1
:102230007248FFF74BF83420082100F0CEFF34201D
:10224000CBE00020D14901900A6942F400320A61D2
:102250000A6902F4003201F0CAF842F008020A608A
:10226000096801F008010191072100F03BFC6020A2
:102270000290019802A9FC4800F54060FFF726F89B
:10228000ADE00020F74901900A6942F480220A611A
:102290000A6902F4802201F0AAF842F002020A6000
:1022A000096801F002010191072100F01BFC4FF4C5
:1022B00040600290019802A9EB4800F58060FFF7AA
:1022C00005F827200C2100F088FF272085E000205A
:1022D000E44901904A6942F020024A614A6902F0E9
:1022E000200201F084F842F004020A60096801F05B
:1022F00004010191082100F0F5FBC0200290019833
:1023000002A9D94800F50060FEF7E0FF47200A2146
:1023100000F063FF472060E00025D2484FF0080836
:102320004FF003090226D04F0195016941F4801155
:102330000161016901F48011019101990195016820
:1023400041F004010160016801F00401019101996B
:102350000195016841F008010160006800F0080083
:1023600001900198CDF81880CDE9045903964FF4F7
:102370008050029002AC07F500602146FEF7A6FFF0
:1023800004202146CDE90598CDE90365029007F5C3
:102390004060FEF79BFF35200C2100F01EFF35202A
:1023A0001BE00020AF4901904A6942F010024A61E7
:1023B0004A6902F0100200F0E3FD072100F092FBF1
:1023C0004FF4C0600290019802A9A748FEF77EFF73
:1023D00025200C2100F001FF2520FFF7D5F807B0DC
:1023E000BDE8F08300440040004800400014014074
:1023F0000050004000100140004C0040000002402E
:1024000070472DE9F843044690F83D00202806D196
:102410000E4639B117462AB100F055FD05D102200C
:10242000BDE8F8830120BDE8F8834FF000090120E2
:102430001D46C4F8409084F83C00212084F83D00FB
:10244000FFF71EF8E7848046A784A068B0F5805F98
:1024500001D1206908B1002701E03746002684F841
:102460003C90E08CB8B12046802142462B4601F0DA
:102470004BFCB8B926B116F8010B2168486006E09C
:1024800037F8021B206800266FF35F214160E08C63
:102490000138E084E5E72046402142462B4601F022
:1024A00033FC10B10320BDE8F883202084F83D0000
:1024B0000020BDE8F8837047BFB52548264D254B61
:1024C000002101244FF48032039185620425C1620A
:1024D00080F82010047680F83040C0E90032C0E96E
:1024E0000211C0E90444C561FEF7A8FB08B1FEF77C
:1024F00029FB07206946CDE901400A2000901448D5
:10250000FEF724FB08B1FEF71DFB0220694601908F
:102510000B2000900E48FEF719FB08B1FEF712FBE6
:102520000320694601900C2000900948FEF70EFB3D
:1025300008B1FEF707FB0420694601900D200090CA
:102540000348FEF703FB08B1FEF7FCFABFBD00BF6E
:10255000F8060020002001400100000FE0B5002037
:10256000002201903F48016841F480010160002190
:10257000006800F48000019001983820FFF710F8FF
:102580003820BDE88C40FEF7FFBF00BF3038024066
:102590002DE9F04F87B000243248334E334F0022EC
:1025A0004FF0080906940194016841F08001016030
:1025B000016801F0800100F0FBF841F004010160C6
:1025C000016801F0040100F0F3F841F0010101603D
:1025D000016801F0010100F0EBF841F00201016037
:1025E000016801F0020100F0E3F841F00801016028
:1025F0000821006800F00800019001983046B847B3
:1026000006F5006520210122B3464FF00108284657
:10261000B84706F58066022101223046B8474FF0E0
:10262000030ACDE90298DFF848905846CDE9044AFC
:1026300002AF3946C847202000F04DFA2846C84767
:10264000022000F048FA3046C8474FF47850394627
:10265000CDE9034402900BF54060C84707B0BDE8E0
:10266000F08F00BF303802400000024075140008AF
:10267000CD120008B0B50F4800214FF400720E4D86
:102680004FF400434FF48274C0E906210A22C0E9E6
:102690000054C0E90231C0E90411C0E90811C0E9E1
:1026A0000A12FFF739FA18B1BDE8B040FEF74ABA8E
:1026B000B0BD00BFA00700200030014010B50748A2
:1026C000074C00210C224FF4E13300F076F818B1EA
:1026D000BDE81040FEF736BA10BD00BF0C0900205F
:1026E000004C004010B50748074C00210C224FF465
:1026F000165300F062F818B1BDE81040FEF722BA98
:1027000010BD00BF500900200050004010B5074820
:10271000074C00210C224FF4165300F04EF818B16C
:10272000BDE81040FEF70EBA10BD00BF4008002003
:102730000010014010B50748074C00210C224FF44F
:10274000E13300F03AF818B1BDE81040FEF7FAB9ED
:1027500010BD00BF840800200044004010B50748A9
:10276000074C00210C224FF4165300F026F818B144
:10277000BDE81040FEF7E6B910BD00BFC808002054
:102780000048004010B50748074C00210C224FF4C8
:10279000E13300F012F818B1BDE81040FEF7D2B9ED
:1027A00010BD00BF9409002000140140FEE7FEE7C1
:1027B00001910199019401687047C0E90043C0E9A3
:1027C0000211C0E90412C0E90611FFF7E7BCD3F813
:1027D000000400F0070040457047002084F83400F2
:1027E000012084F835007047206850E8050F216803
:1027F00020F0010041E80502002A7047228906EB1B
:10280000500100F00100891A40EA410080F0010007
:10281000704701224FF47A73FFF7F3BD00210022C5
:1028200009F03CB907F118054FF0FF31284620F0B8
:1028300095BE044600202072FDF7C2BC2246A16965
:1028400052F8143F5960A169A2610B60617A12606D
:1028500001F0FE016172FDF7B7BC08210822334682
:1028600020F0E8BB304620F0E5BBC868897E01F067
:102870003F0101EB4101890015F0BABEE068006834
:1028800019F084BA20464FF480317047024638462A
:10289000294602F09EB8BBF81600BBF81A10728BDE
:1028A000009CB146081A0221013000B290FBF1F001
:1028B000F18A511A6FF00102013109B291FBF2F174
:1028C0000844704700EB8000502101EB4000A0213C
:1028D00090FBF1F070472A461CF0C0B8096801EB84
:1028E0008002526841F820200130704701380021F1
:1028F000002200B20090781E03B27047A4EB0B01D7
:1029000010FB05F001EBD030A8F8020006F15A00E8
:1029100000B23847BBF80010BBF80420511A01314F
:1029200009B2081A022190FBF1F0BDF8A810084482
:102930007047009040460DF057BAB8F81500C0F344
:102940008A000330800800FB05F170470144ADF8B0
:102950005010BDF854100844BDF85210ADF85400A2
:1029600068880144ADF85210BDF85610084470470D
:10297000BDF86E10BDF8724040B2611ABDF87040EB
:10298000013109B27047BDF95800BDF95A10149AC7
:102990000A9B7047011BADF8E01029190844531831
:1029A000ADF8E400101BADF8E630ADF8E20070477A
:1029B00009B21BB2019030460DF012BC4618BDF8AA
:1029C0006C00ADF87400BDF87000ADF8780002201E
:1029D0008DF8600070471F9B01321844209B1944FA
:1029E00070478DF844002046CDE9009A05F042B9C1
:1029F00036F8140F7188F288511A7047204617F084
:102A000060B8606A202289B209F06EBD284612F0D3
:102A100070BC2846FDF7D6BC024630460021484728
:102A20000021022202231AF07BBA606A50F82600C5
:102A300015F0C0BD42F2640142F264021AF07CBBA0
:102A400052F80C1C022332F8042C00907047044604
:102A5000D0E90B204FF4806500210023009515F08C
:102A6000FDBC04460068083015F012BD59463A46D0
:102A700053463047B2FA82F4C4F11A03DA4082F0C6
:102A80002003C4F1190270470446D01A05B2002D84
:102A90007047504607F0BAB820464FF4003118F09E
:102AA0001FBC204619F072B90398049D069AA9EB41
:102AB0000A01009020462B461EF049BA28464FF4E2
:102AC000802118F0C1BD30461A212A4612F018BCE8
:102AD000606A14F0C3BE3946CDF814A0CDE9038472
:102AE0000290704706910321CDE904010220039072
:102AF0007047044690F834000128704700F01F0129
:102B00000122400902FA01F17047012084F84600D1
:102B100084F83E0084F83F0084F8400084F84100C7
:102B200084F8420084F8430084F8440084F84500A7
:102B300084F83D00002010BD50E8050F216820F00A
:102B4000400041E80502002A7047044620F0D8BB47
:102B500081B220461CF0E3B8204620F09BBC02F076
:102B60003F0202EB420270470F2112F0C9BBADF8E1
:102B70008C10618B0144ADF89210E18A081A7047FD
:102B80003046294618F0ECBABBF81400BBF8181010
:102B9000328B009CB146081A0221013000B290FB32
:102BA000F1F0B18A511A6FF00102013109B291FBC3
:102BB000F2F10844704700EB80004000F0287047B5
:102BC00020F4FC72083000F4FC7188186084E0681E
:102BD00015F00EBDD8F800000CF0E4B80BEB0901BD
:102BE00010FB05F001EBD030A8F8040030B23847F4
:102BF000BBF800100844BBF80410081ABDF8A81070
:102C0000084401307047B8F81500C0F38A00073057
:102C1000C00800FB05F1704704EBD030ADF8580058
:102C2000704700EB08031A986FF30F0100EB45069D
:102C30007047BDF8E2000BF1010B0130ADF8E20086
:102C4000BDF8E6000130ADF8E6007047BBF1000FBB
:102C5000ADF87A50ADF876507047DDF860904FF0DF
:102C6000000C7047384619F091B8002118F008BCE4
:102C70000022E86800F11801204630470093002345
:102C800015F0ECBB204618F0EDBD022116F0C4BFD4
:102C9000216AA26A521A504301EBA020BCBD29460A
:102CA0003A46434630474FF4003118F082B9AAF84B
:102CB00034108BB210F8133013F0280F70472046F1
:102CC0004FF4003118F0B7BBADF846002844013886
:102CD000ADF84A0070470698DDE90732AAEB070114
:102CE000009030461EF033B929682046002201F0DA
:102CF000B4B90146B4F8405020461DF0B7BC016895
:102D000051E8051F026821F0010142E80513002B7C
:102D10007047384632462B464847006850F82470C2
:102D2000384618F0DCBD1198048805F15A0000B24D
:102D30005047BDF972002CB284427047706DF5683F
:102D40005047304601F0A9BD204619F083BD01313E
:102D500009B291FBF2F17047404647F6FF711DF052
:102D600085BC016841F0010101607047CDF8088021
:102D70005846009C17F037BC284617F0B7BD11988D
:102D8000058805985A3000B250472146ADF8466094
:102D9000ADF8426015F037BDE8684FF4803200F1BD
:102DA00008012046304730464FF4C0212A4618F02B
:102DB00025BE0899DDE9060212F0F2BB20464FF469
:102DC000E0217047016801914168019101997047C4
:102DD00042F2D1750646401BB0FA80F07047DDF82C
:102DE00018B001465A4601F05BB8BDF95C1022B23A
:102DF000504633460CF08CBFF0684FF4A02200F12F
:102E00002001204638474FF6FD7192B288424FF0BC
:102E100000007047D8F83000D8F83C101190149199
:102E2000704720461DF0BAB8816801F007010629F5
:102E3000704764216FF06303B0FBF1F202FB030003
:102E40003223704704FB03F2642392FBF3F212B2C5
:102E5000704700210CF0CCBDADF87A100C9ABDF88B
:102E6000A610414409B28A427047706DF468504719
:102E70009DF8B52042F010028DF8B520704720462D
:102E800007F0E4BC002184F8501084F85190BDE8AC
:102E9000F883013001FA80F19142704720462146C3
:102EA00000F0FEBF324601F08AB8706DF46803216D
:102EB0005047384617F07ABD94F8480000F0F70004
:102EC00084F84800704794F83C0001287047204679
:102ED00018F0D7B90D980E9900B20FB2A7EB000BFE
:102EE0007047324601F007B8204617F008BC384654
:102EF00017F094BC044690F8500001287047204613
:102F000018F06ABAADF85E000D9800B2A7EB000B9E
:102F100070478DF89000504631460EF05ABA00F1D5
:102F2000600120463847B7F87C10384606F0D5BE19
:102F3000002200F0E0BF8DF89000504629460EF0C8
:102F400048BA014605F120001047284617F0D7BBC4
:102F5000ADF84650ADF8425015F055BC706DF468B0
:102F60000A21504728464FF4002118F0B8BC0499B4
:102F70005046324615F0F2BB706DF468022150479E
:102F80000192019A01900A6842F001020A60096800
:102F900001F0010101917047B06800F00C000828B1
:102FA0007047206850E8030F216820F0100041E8C6
:102FB0000302002A704780210A221AF0BDB8204679
:102FC00005F0B1BDA068006850F8260018F03FBFBA
:102FD0003046294618F036B8618B0144ADF806102A
:102FE000218B0144ADF80410E18A091AADF80210F2
:102FF000A18A081A704700200BF07CBE0E461946C5
:103000001C461546074605F043BE30464FF40021E6
:1030100018F061BC01EBD030A8F800000FFA8AF07C
:103020003847707FB6F9143049462246009038463A
:103030001DF08DBF4DF808ED81EA5221C9B21EF096
:103040001BFB0AF808005DF808EB7047294632467A
:1030500043464847B8F81500C0F38A0001304008DD
:1030600000FB05F1704705985A3000B21DF0E8BE2C
:10307000BDF86E00BDF87210DDF850C07047ADF8B5
:1030800034009AF808008DF8440084F001002843C9
:1030900001287047139F504631463A4615F0C4BA8E
:1030A000384618F073BEF068042200F1A0012046F3
:1030B0003847002118F0F2B820461C21002212F0F7
:1030C0001FB942F2640142F2D1721AF035B80446D7
:1030D000D0E90B204FF4806100230091002115F00E
:1030E000BDB9304659463A46534602F0BEB820466E
:1030F00018F04CBE0131BAF830308CB2AAF8341056
:103100009C42704794F83C0000F0EF0084F83C00CB
:1031100070470898DDE90632A4EB0B0100904846A1
:103120001DF015BF50464FF4403170471C2100225E
:1031300012F0E6B837F8021BC1602763E08E013851
:10314000E0867047DDF84090DDF84880704700F178
:103150005001204638472068816889077047B9F1D7
:10316000010FADF82640ADF82240704700F1B001E4
:103170002046384750460EF02CB900F580712046A5
:10318000304712201AF0FEB90022E86800F1480129
:10319000204616F0AFB90022E86800F11801204679
:1031A00016F0A8B97078022102287047002084F830
:1031B0003C0020467047F0684FF4803200F108016F
:1031C00020463847F0684FF4403200F1F0012046C5
:1031D000384700F12801204630470022FEF7E0B9C9
:1031E000002000902068C1680091806800900098DD
:1031F0007047242084F83D002068C16821F4005104
:10320000C160204600F02ABD2046FF211BF097BD7B
:10321000024628460E2112F073B890FBF1F000220E
:10322000284401B22046704702463046294601F044
:10323000D0BBB14690FBF1F0F18A511A6FF0010258
:103240004044013109B291FBF2F1704700EB80007C
:10325000502101EB40006FF09F0190FBF1F07047AF
:1032600028465146BBF8082018F00AB9C6E90111F2
:10327000D8F800100968C968704701EBD030A8F889
:1032800006007047ADF89C80ADF85000BDF8A8006E
:1032900070474046294615F08DBA98F8140000F0A2
:1032A0001F00704700B21DF0CBBD6FF30F01194432
:1032B0007047BDF9E0100FFA8BF238462B460CF040
:1032C00027BDBDF86C00BDF86E50ADF87400BDF8B8
:1032D0007000ADF8780002208DF8600014AF7047E0
:1032E000E868042200F1A00120463047384600215A
:1032F00018F07FB884F83C0020461FF07FB82846BD
:103300004FF480413047091A013109B291FBF2F1C3
:10331000084411917047009508F014BCADF8007096
:1033200000F09BBE20F007008146406859F8081B5A
:103330007047B4F93010B4F932207047284611F0C4
:10334000D8BFBDF85E00BDF86210081A013001B2A6
:10335000BDF95A0088427047304652465B461EF01F
:1033600023BDB4F840100089ADF80410BDF8061074
:10337000704700F1280120463847E868202200F114
:10338000D801204630474DF808ED2046FEF7D4FD21
:1033900020465DF808EBFEF7D0BDE868202200F17A
:1033A000580120463047E868802200F1600120463D
:1033B0003047E868002200F1D00120463047E86835
:1033C000002200F1B001204630470022F06800F1F1
:1033D000180120463847706DF76801215047706D1D
:1033E000F56801215047706DF5680321504701923F
:1033F000019A01900A6870470173206B01302063C5
:10340000E08E0138E086704781B220461BF08BBC0D
:103410004FF4FA73FEF70ABC204601F025BA401AB1
:10342000B0FA80F0400970470D46064618F028B8FB
:10343000204617F016BE28464FF48031704782EAC6
:103440005121C9B21EF018B950460DF07BBAC0F335
:103450004513C1F34514C1F3C425704700210CF096
:10346000C7BA484641460DF0B4BFE868082200F1EB
:10347000A801204630473046394601F00BBA41805A
:10348000C1881144C18070470A44ADF82A20BDF8B4
:103490002C201044ADF82C00BDF82E0008447047D5
:1034A00000F0FC000D990F9A02300D920F918DF8EB
:1034B00056007047079020464FF4A02117F0D4BF64
:1034C00030464FF4E021704700F13001204630478C
:1034D000F0682A4600F1D8012046384700F128015B
:1034E00020462A46384700F1200500200BF002BC98
:1034F000044690F83D000028704741E80302002A86
:103500007047204602211BF012BC204602210122F6
:1035100028473A4611F0F4BE019902206FF00102EB
:1035200091FBF0F00FFA88F191FBF2F1084470473B
:1035300000EB8000502101EB4000A02190FBF1F74F
:103540007047C0F3C5016FF0070000EBC1000139FF
:10355000704704EBD030B9F80040ADF85A0070471E
:103560000598BDF966108068A0EB410030F81400A2
:10357000ADF848007047F068082200F1A801204625
:103580003847384617F02FB8B9F92030B9F81E007F
:10359000D9E905127047204617F075B89DF8560016
:1035A0001191002D00F0FE018DF856107047089023
:1035B00020464FF4A02117F0F4BE2046FEF728BCA9
:1035C000002084F83C002046FEF7FEBD20461BF09C
:1035D0008BBA8DF80700022100222046284720469A
:1035E0002946324617F0FAB9029902206FF001021B
:1035F00091FBF0F00FFA8BF191FBF2F17047002193
:1036000000224FF0FF33009407F066BE014600F041
:1036100047BC5046224633460CF07ABBF06805F1B1
:103620001C0200F158012046384701EA90000D992C
:103630000A5E0C99095ED8F800007047E8004FF068
:10364000011121FA00F0C1B270473A4611F058BE9C
:10365000204618F007B9BDF92E00696A079ABDF92E
:10366000303041F6FF76704758464FF4A0212A4685
:1036700018F060BA284611F03EBE016841F04001E2
:10368000016070474161C16841F40051C160002090
:103690002021206484F83D1084F83E1010BD21469E
:1036A0004FF400327047284611F023BE0221328BBE
:1036B00090FBF1F0B18A511A6FF001024844704753
:1036C0000CB20BF017BB04EBD030B9F80240ADF8E8
:1036D00058000B985047504622460CF019BB7078A2
:1036E0000A2102287047384616F069BFB4F9203025
:1036F000E08BD4E90512C618704742F2D1718842B6
:103700007047069020464FF4A02117F092BD28463E
:10371000FCF751BE0220211D84F83D00206800F016
:103720008BB9A4F58060082101222847009C5846E7
:1037300016F059BF0C46054619F0E6BE05EBD03031
:10374000ADF85C00119845880C985047BDF96C1095
:1037500050463A4623460CF0DBBAE868002200F1F6
:103760007801204630474FF4003117F0ECBF28466F
:1037700011F0BFBD0D990F9A1FFA88F007F0F5B848
:10378000A8EB05000122084401B22046704700233F
:10379000054616F099BF0C46054616F08DB804EBA9
:1037A000D030ADF85C007047BDF94010239832B2BC
:1037B00023460CF0ADBA706DF7685047099928465A
:1037C00000F06EBBBDF82810BDF82A200144ADF80A
:1037D00028107047BDF83E00BDF84210081A0130AD
:1037E00070472946FCF709BE1CB5044686481346B7
:1037F0000A4611490068B0FBF1F04FF47A71484372
:1038000001906068B0F5827F0AD12046802100F0E7
:1038100015F870B1606D40F02000606503201CBD9C
:10382000019830B101980138019020688068000645
:10383000F6D400201CBD00BF00366E012DE9FC410E
:103840001E4617460D468046FDF71AFE301AC4196B
:10385000FDF716FE06466C4801370068C0F3CB3012
:1038600060430190D8F8000081682940A9420ED138
:10387000002FF9D0FDF704FE801BA0420AD2019868
:10388000019901390191002808BF0446EAE70020A8
:10389000BDE8FC81D8E900014268B1F5827F22F0E1
:1038A000E00242600BD1D8F80810B1F5004F02D009
:1038B000B1F5806F03D1016821F040010160D8F8B3
:1038C0002810B1F5005F07D1016821F400510160B3
:1038D000016841F400510160002088F85000012087
:1038E00088F851000320BDE8FC8100BF80B51FF0BF
:1038F00087FB20F025F9BDE880401FF08DBB00005C
:10390000B0B592B000241421CDE90A44CDE90844B1
:1039100001A8FCF739FD214800940225016841F017
:1039200080510160006800F0805000900098009481
:103930001B48016841F480410160A821006800F43F
:1039400080400090042010951190CDE90E014FF4B5
:103950008000CDE90C504FF4803007900120069094
:10396000009806A8FDF744FF18B1EFF3108072B677
:10397000FEE74FF48050CDE90254052105904FF445
:10398000A05004900F20019001A8FDF73FFE18B150
:10399000EFF3108072B6FEE712B0B0BD40380240BF
:1039A000007000401548416801F00C021449082AD3
:1039B00003D0042A17D1134915E002685202114AB4
:1039C00058BF0A460168022301F03F01B2FBF1F142
:1039D0000268C2F3881251430268C2F3014203EB4A
:1039E0004202B1FBF2F1084A084B11604068C0F393
:1039F0000310185C21FA00F0106070470438024090
:103A00000024F40000127A005C000020C87B020849
:103A10000248016841F470010160704788ED00E0E0
:103A200080B51FF0EDFA0348FEF7F3F9BDE88040DA
:103A30001FF0F2BAF807002070B52A4A03689042D6
:103A400034D0B0F1804F0BD0274CA04208D0274C87
:103A5000A04205D0264CA04202D0264CA04203D161
:103A60004C6823F070032343B0F1804F22D01E4CEA
:103A7000A0421FD01D4CA0421CD01E4CA04219D009
:103A80001D4CA04216D01D4CA04213D01C4CA0428D
:103A900010D0174CA0420DD01A4CA0420AD01A4C9C
:103AA000A04207D0194CA04204D007E04C6823F094
:103AB00070032343CC6823F4407323434E6923F0FF
:103AC00080030C688D68334390420360C562846252
:103AD00003D002F58062904201D10969016301219E
:103AE000416170BD0000014000040040000800403A
:103AF00000040140000C004000180040001C004081
:103B000000200040004001400048014000440140C6
:103B100080B51FF075FA0348FEF724FABDE880402F
:103B20001FF07ABA0C09002080B51FF069FA04482A
:103B3000FEF718FA22F018FEBDE880401FF06CBABC
:103B400050090020806B0021C185C184FEF708BAAE
:103B5000016851E8031F026821F4907142E80313E1
:103B6000002BF5D14DF808EDFFF7C9F85DF808EB2B
:103B7000F8D1016B012909D1016851E8031F0268DE
:103B800021F0100142E80313002BF5D1202180F829
:103B90003E1000210163704781B090F83E10222949
:103BA00020D18368B3F5805F08D10169002948D02E
:103BB00000F128010A6803685B680AE0014651F8D1
:103BC000282F13B90369002BF5D003685B6803F055
:103BD0007F0313700A6801320A60C18D0139C18503
:103BE000090401D001B070470168CA6822F02002C0
:103BF000CA60CA6822F48072CA604A6922F001026F
:103C00004A61202280F83E20026B012A22D1002244
:103C1000026351E8031F026821F0100142E8031318
:103C20000168002BF5D10A68D20606D50022009261
:103C30000A680092496800910099818D01B0FEF7F1
:103C40008EB90168826A49686FF35F2122F8021B0E
:103C50008262C2E701B0FEF7D3BB0000B0B50446F4
:103C6000006804F108030ECB056925F4405519439B
:103C70002A4349F20C650261C26863691943E3692A
:103C8000AA4319431143C1604169A26921F44071FB
:103C9000114341611B4940F48060884202D1FDF725
:103CA00069FD01E0FDF75CFDE26919216368A0FB95
:103CB0000101B2F5004F10D15A00DB0FFCF71AFBDF
:103CC000FFF7B7F803EBC000B0FBF1F04FF4F87169
:103CD00001EA400100F007000DE09A009B0FFCF79D
:103CE00009FBFFF7A6F803EB0010B0FBF1F000F0C2
:103CF000F00100F00F0001EB021108442168886018
:103D0000B0BD00BF001401402DE9F0411D469046B2
:103D10000F4604465E1C206800683840B8421FD039
:103D2000002EF8D02DB1FDF7ABFBA0EB0800A842A8
:103D3000F1D9206850E8030F216820F4D070FFF714
:103D4000DCFBF6D1FEF750FDFCD12020002184F8E9
:103D50003D0084F83C1084F83E000320BDE8F0816B
:103D60000020BDE8F081000080B51FF049F904484B
:103D7000FEF7F8F822F08AFEBDE880401FF04CB94B
:103D80004008002080B51FF03BF90448FEF7EAF830
:103D900023F026F8BDE880401FF03EB9C808002097
:103DA000B0B51FF02DF90F4C2046FEF7DBF8216867
:103DB0000868800611D5C86880060ED50A4D0868C7
:103DC000800606D528684968C9B21FF000FB216843
:103DD000F5E7064800681FF09CFBBDE8B0401FF007
:103DE0001BB900BF94090020D4000020D00000209F
:103DF000FEE700000648BFF34F8F064A016801F452
:103E0000E06111430160BFF34F8F00BFFDE700BFCA
:103E10000CED00E00400FA0518B1C1B219B101209F
:103E20000EE00020704710F47F4102D0090A0920FB
:103E300006E010F47F0107BF010E1920090C1120C4
:103E4000014A515C08447047E07B02080268002187
:103E50001378303B092B84BF08467047531C01EB95
:103E600081010360127802EB41011A463039EFE715
:103E7000B0B50848442100F015FD07481E21002276
:103E800000241CF0EDFD054D686001F0FDFC2C7078
:103E9000B0BD00BF20030020AD580008C4020020C0
:103EA000F0B5B1F90030B2F90070B1F90240B1F9E2
:103EB0000450B1F906C0B2F90210B2F90460B2F9C7
:103EC0000620BB42C8BF1F4607808C42C8BF2146A0
:103ED0004180B542B8BF2E4686809445B8BF624641
:103EE000C280B74205DC10B209B28142DCBF0120BA
:103EF000F0BD0020F0BD2DE9F8430D46B0F900708B
:103F0000B1F900108F4238DBB0F90260B5F9021048
:103F10008E4232DBB0F90490B5F9041089452CDCEF
:103F2000B0F90680B5F90600804526DC14463AB3A0
:103F3000694628462246ADF80260FFF7EFF9E0B186
:103F4000694628462246ADF80260ADF8009000F0C0
:103F500084F890B1694628462246ADF80280FFF702
:103F6000DDF950B1694628462246ADF80280ADF829
:103F7000009000F072F8BDE8F8830020BDE8F883F7
:103F80000120BDE8F883B1F90420B0F90030934274
:103F900013DCB1F90020B0F9043093420DDBB1F924
:103FA0000620B0F90230934207DCB1F90210B0F9F3
:103FB00006008842A4BF01207047002070472DE909
:103FC000F8430D46B0F90460B1F900108E4211DBE0
:103FD000B0F90670B5F902108F420BDBB0F9008022
:103FE000B5F90410884505DCB0F90290B5F9060072
:103FF000814502DD0120BDE8F8831446EAB1694637
:1040000028462246ADF80290ADF8008000F025F871
:1040100098B9694628462246ADF80290ADF800608E
:1040200000F01BF848B9694628462246ADF80270F0
:10403000ADF8008000F011F810B10020BDE8F88361
:10404000694628462246ADF80270ADF8006000F0DF
:1040500004F880F00100BDE8F8832DE9FC470C4628
:10406000B0F90010B4F900308B420DDBB0F90470E8
:10407000BB4209DCB0F90260B4F90230B34203DBA1
:10408000B0F90650AB4202DD0020BDE8FC87012AF2
:1040900069DBA81B7B1A4FF0020CADF80260ADF88B
:1040A0000010013001331BB200B290FBFCF993FB0E
:1040B000FCF30FFA89FE18B27045B8BF99460FFAA3
:1040C00089F09042A8BF914609EB010A09EB060866
:1040D000684621460022ADF804A0ADF80680FFF73F
:1040E000BCFF20B108EB0900ADF806000FE0ADF809
:1040F0000650A5EB0905684621460022ADF802509E
:10410000FFF7ABFF40B1A5EB0900ADF802000AEBE9
:104110000900ADF8040020E0ADF80470A7EB090732
:10412000684621460022FFF7F9F820B1A5EB090007
:10413000ADF802000DE0684621460022ADF8068089
:10414000ADF80260FFF789FF68B108EB0900ADF830
:104150000600A7EB0900ADF800006846214619F0FB
:10416000D5FABDE8FC870120BDE8FC87F0B5B1F9C0
:104170000030B2F90060B1F90240B2F90270B1F951
:104180000450B1F906C0B2F90410B2F90620B342E6
:10419000B8BF1E460680BC42B8BF274647808D4246
:1041A000C8BF294681809445C8BF6246C280F0BD21
:1041B0002DE9F04F8BB005461CF0F6FB002108916D
:1041C000029045B1E868DFF85C4B206028461CF09F
:1041D00015FD206804E00AF089FDDFF8481B08603F
:1041E000006919F091F9DFF83C8BD8F800104869A4
:1041F00018B119F089F9D8F80010C86919F084F9D4
:10420000D8F80000006A19F07FF9D8F800000169B9
:10421000002961D0DFF8809300250DF1240B4FF0C9
:10422000010AB0F850118D4245D2411991F8301170
:1042300009B10135F5E70024B0F850118C42F8D2ED
:10424000011991F8301191BBAC4230D000F130012E
:1042500001EBC50001EBC401FFF795FE38B3D8F8B8
:104260000000303000EBC50100EBC4025846FFF7F8
:104270007DFF5846C8470646D8F8000000EBC50049
:104280003030C8470746D8F8000000EBC400303093
:10429000C847384486420AD2D8F80000DDE909232D
:1042A00000EBC50120440A634B6380F830A1D8F8C5
:1042B00000000134C0E7B0F850410021C8F80410F4
:1042C000002C00F06081012C0ADB0119013C91F8FF
:1042D0002F110029F7D104E00021A0F8501158E176
:1042E000002401684A6B22B108469047D8F80000C4
:1042F0000168C96800258A6922F001028A610168A3
:10430000C9688A6922F002028A61039490F8281031
:1043100041F0040180F82810B0F850118D4280F06F
:10432000F080411991F83011002940F0E880A54251
:1043300005D10168C9688A6942F001028A61016891
:1043400000EBC50707F13009C9688A6922F002024B
:104350008A610168CA68CE6B92683260097C8907FD
:1043600020D00AF0D7FC0746FEF734FCFEF7BEFA71
:10437000584606F0B1FFD8F80000C6F804B001684E
:10438000D1E903018907826959BF816962F341015B
:1043900042F00201D94681613046C6F808901DF00E
:1043A00087FE9FE037F832AFCDF81C900695B9F83C
:1043B00000903C46059737F8021F34F9045F0491DA
:1043C0000AF0F0FC854202DAB4F800B003E0FEF730
:1043D00001FCA0F1010B049AA5EB0A00411CA2EB21
:1043E000090009B2013003B2D8F800000068C468BF
:1043F0008269E468B4FBF3F98945C8BF894612B302
:1044000000214C46ADF828100991651EADF82A50E0
:1044100009A99047BDF82610BDF92A00411A0131BB
:1044200009B2894507DA2CB2012C0ADBD8F8000062
:1044300000688269E9E721B2012902DB00F1010984
:1044400001E04FF0000905980FFA8BF40021008875
:1044500009FA80F56A1EA24227DC09A90FFA82FA3E
:10446000FEF704FF8B683360ADF8260007980088DC
:10447000ADF824003888ADF82A201FFA8BF2ADF889
:1044800028005445BCBFADF82AB0DA461FFA8AF0BE
:10449000824203D1886940F00200886130461DF0F5
:1044A00007FE0FFA8AF12846D2E7A14216D009A9E1
:1044B000079BFEF7DBFE8A6832603A881B888C69AE
:1044C00044F002048C61ADF826003046ADF82AB005
:1044D000ADF82430ADF828201DF0EAFD039C069DC0
:1044E0000DF1240BD8F8000000EBC500303006F0C9
:1044F000C5FE0146D8E900021144C8F80410013590
:104500000AE790F8282002F0FB0280F82820D1B3B7
:104510000168097C890718D50AF0FCFB0646FEF7FE
:1045200059FB01380021002200B20090701E03B236
:10453000584606F0D1FED8F800000168C96BC1F8F2
:1045400004B002F07DFDD8F8000030304FF48071E7
:1045500014F030F9D8F80000202100F5987014F01C
:1045600029F9D8F800000021A0F8501102981CF099
:1045700015FA0890D8F800000068436A1BB1D8F813
:1045800004200899984713F099FF00F02BF800F0E9
:1045900005F80BB0BDE8F08F7DB20008B0B5074D4F
:1045A0000024702C08BFB0BD285908B114F002F8DF
:1045B00028191C2114F0FEF81C34F2E73C040020FA
:1045C0000749096859B14A68824202D00A688242A2
:1045D00003D10A7E42F001020A761431F1E77047F6
:1045E00070060020704700000148042100F05AB90D
:1045F000140300200148202100F054B92C030020AE
:104600002DE9FF470C9E1D46824643B9B6F5807FD3
:1046100005D10020551ECAF80000481E60E0DDF8F4
:10462000348000206F46DFF8C490ADF80E20ADF85E
:104630000A20ADF80C10ADF8041029463246CDF82A
:104640000600009038464346C847381DFEF7FEFC7A
:1046500007F10800FEF7FAFC07F10C00FEF7F6FC84
:10466000BDF90C00BDF908C007468445B8BF6746D0
:10467000BDF90440BDF900E0BDF90630BDF90260A6
:104680002246A6451D46B8BF7246BA42A8BF3A4662
:10469000BDF90E70023AAAF80020BDF90A20394689
:1046A000BA42B8BF11469E42B8BF35468D42A8BF38
:1046B0000D46A91EBA42AAF80210C8BF17469E426C
:1046C000C8BF3346BB42D8BF3B469D1C8445C8BFCC
:1046D0006046A645C8BF74468442D8BF0446A01CA5
:1046E000AAF80650AAF80400BDE8FF87F1D5010832
:1046F000F8B516460C4607461CF056F9A2B2104C07
:10470000054639463346204611F05EFE60B1002072
:10471000A062E06988B928461CF040F9084C0028DE
:1047200008BF0120E06108E0054C2C21204614F070
:1047300041F84FF00040A06200242046F8BD00BFC1
:104740002C05002010B50848142100F0ABF811F03A
:1047500003FE40B10549064A064B074CC0E9004339
:10476000C0E9022110BDFEE738030020CD5D01083D
:1047700045600108E15E0108FD5D0108F0B585B006
:104780000D46044620B90AF0B1FA0446002854D078
:1047900020460AF01DFB00284FD094F8280040075F
:1047A0004BD4002075B3029020460AF0B3FA0138CA
:1047B000ADF80C0020460AF0F5FA01382946ADF8AC
:1047C0000E00684602AAFFF76BFBB0B32068017CBD
:1047D000890727D482690AB16946904704F13001FC
:1047E0004FF0FF366D46B4F85001013686420CD2C8
:1047F0002846002201F10807FFF77DFB0028394613
:10480000F1D01AE0A4F8500117E01F2807D8DDE91D
:10481000002304EBC00101300A634B6307E0002072
:10482000A4F8500102980399206301206163A4F861
:104830005001606808B11CF0EFF905B0F0BD70B52B
:10484000044608B165680CE000250AE020682946A6
:1048500028444668204600F05CF8284613F0AAFE7B
:104860003546002DF2D170BD08B140687047002078
:10487000704708B1426800E00022002122B10368BD
:1048800001311A445268F9E7084670470068084445
:104890004068704700680858704708B180687047E2
:1048A000002070470331002221F003018260C0E93B
:1048B0000012704710B5FEF7D4F858B121680022F5
:1048C0004250421863685360626802B15050A16858
:1048D000606001B110BDA06010BD10B5FEF7C1F859
:1048E00058B122680023111D4350A3688350A26869
:1048F00002B150506168A06001B110BD606010BD90
:1049000028B1416809B9806808B1002070470120CA
:10491000704710B568B142688A420BD0026884685B
:104920008B588C420ED0141D085903B1185100B198
:10493000835010BD026811444968416041B10020B4
:10494000885010BD836003B1D0180021416010BDB4
:104950000021816010BD10B504460068826812B164
:10496000214690472068006808B12060F6E710BD36
:10497000806808B1C08A00E0002000B270478068FB
:1049800010B1807E800970470020704770B50446E2
:1049900052EA01001BD0204615460E4614F08CFF4B
:1049A000A0682A460123018A31440182418A2944B0
:1049B00041822046314617F05EFA20460B21002244
:1049C00010F09EFC012803D1204617F0DFF90120EA
:1049D00070BDF8B51446A8B161220D46074616F021
:1049E0004FFD78B10646006860B13846294662221C
:1049F00016F046FD010605D03368C2B2A1B23046BA
:104A0000984700E02046C0EA0400F8BD2DE9F04FC9
:104A100091B00546408CDDF868B016461F468A46C0
:104A20002A8440F0040068842846BBF8082016F069
:104A300027FD2F840446FEF713FC8146688C20F086
:104A4000040068844C4500D16AD02E84FEF708FC2F
:104A50008046284651462F8404F0F9FA0068BBF8D6
:104A6000081042461AF000FABBF808000B2826D1BD
:104A700047F6FF76B04518BFB14520D1284616F05D
:104A8000F1FE022790FBF7F4284615F0FCFD90FBA1
:104A9000F7F0B04507D1611C421C09B20FFA82F849
:104AA0004145B8BF884647F6FF71894507D1611C6B
:104AB000013009B20FFA80F94945B8BF89461F484D
:104AC000FFF7F8FE78B30560C0E902A8C0F81090BF
:104AD00006466C46BBF80800B080204605F002FF91
:104AE000FF200A900020CDE908000F4803900F48EE
:104AF00002900F48CDE90060BBF800000B90DBE9A5
:104B00000301CDE90610BBF8020040420C909DF86D
:104B1000420000F0FE008DF84200204605F032FF12
:104B200011B0BDE8F08FFEE7E9640208896502086C
:104B3000B563020801481421FFF7B4BE4403002006
:104B40002DE9FC4704466FEA02086FEA01090027D5
:104B500001AD4FF0000A608CC0F3C500874280F0C1
:104B6000D980E06800EBC70149688A0100F1C8807C
:104B700089B211EA090201EA0801B1FA81F118BF0C
:104B8000012249094A4040F0BB8050F837601021AB
:104B90002A46304619F062FF002840F0B9803046BE
:104BA0001121FDF798FE002840F0B2803046122116
:104BB000FDF791FE002840F0AB8030461321FDF751
:104BC0008AFE002840F0A48030461521FDF783FEC0
:104BD000002840F09D8030461421FDF77CFE00281F
:104BE00040F0968030460A21FDF775FE002840F01F
:104BF0008F8030466A21FDF76EFE002840F08880E5
:104C000030466B21FDF767FE002840F0818030467A
:104C10000121FDF760FE00287AD130460421FDF71E
:104C20005AFE002874D130460221FDF754FE0028B8
:104C30006ED130460321FDF74EFE002868D1304684
:104C40000521FDF748FE002862D130460621FDF718
:104C500042FE00285CD130463221FDF73CFE0028A0
:104C600056D130466D21FDF736FE002850D1304632
:104C70006C21FDF730FE00284AD130466821FDF74F
:104C80002AFED8BB30466921FDF725FEB0BB304671
:104C90006D21FDF720FE88BB30466C21FDF71BFE21
:104CA00060BB30463721FDF716FE38BB3046382151
:104CB000FDF711FE10BB30463521FDF70CFEE8B9BB
:104CC00030464021FDF707FEC0B930464521FDF7CB
:104CD00002FE98B930464121FDF7FDFD70B930461E
:104CE0004221FDF7F8FD48B930464321FDF7F3FDB9
:104CF00020B930464921FDF7EEFD18B14FF0020A08
:104D0000013728E7BAF1000F08BF4FF0010AF7E7B3
:104D10004FF0030A5FFA8AF0BDE8FC87014800689B
:104D2000704700BFF80100207047C0F30410072847
:104D300028BF0720704700004FF6FF71884204BF6C
:104D40001F20704708B9002070476F2801D8094913
:104D500009E0064909680029F5D0054A703880B293
:104D600012688242EFD9085C704700BFEC02002055
:104D700058050020F67D020880B504481821FFF789
:104D800091FD03480121417080BD00BFF002002069
:104D90005C0300202DE9F041D0B116460D460446D3
:104DA000FBF709FBDFF8C082074620462946D8F802
:104DB00000209047D8F8002005462044314690470F
:104DC0002118381A854203D84A5D62550135F9E742
:104DD000BDE8F0812DE9F041DFF8308214460F463E
:104DE00019461D460646D8F804209047386030B171
:104DF0002868D8F8042000213044904700E00020C3
:104E00002060BDE8F08100BF2DE9F04F8FB0189E03
:104E10001C4689460EB100213180B8B10178A9B194
:104E2000B9F1000F12D00192199A12F0060F1AD0A0
:104E3000421C0020012342F201440D2903D803FA49
:104E400001F5254206D1115C0130F6E700200FB0D4
:104E5000BDE8F08F002918BF0130002EF7D04FF6C3
:104E6000FF713180F3E702F0010100230022CDF849
:104E7000089000900A9101218DF833300B9300299E
:104E800000F0B08021B20129C0F2AC8000EB030A2F
:104E900000200021CDE9072309905C480E9142686B
:104EA00050460EA9904783460E9803944FF0FF3664
:104EB0004FF00008002500270D90A0B200240690B6
:104EC000D946059404971AF80400002858D04F4892
:104ED000426850460DA9904780460A9858B10DF196
:104EE0003300494600F0C2F838B1DDE90D0401375E
:104EF000C1460E90E7E7059C01E0CB460497DDF83C
:104F0000089059464246484610F04AFB054400B214
:104F100001993FA30028C8BF0D4428B2069A411A40
:104F200091422146D8BF4FF0FF31721C08BF0E4698
:104F3000BBF10A0F1BD0BBF10D0F18D0ABF59C4194
:104F400045F2A612914212D301370021072904D05D
:104F50005A5C01319345F9D109E0DDE90D14C346EE
:104F60000E91711C099908BF01460991A8E72CB957
:104F7000711C03D1049F002405460DE0049FD9460F
:104F8000701C05D0089BDDF80890099D7BB13AE0C4
:104F9000CB46DDF80890099D3FB1BBF10D0F08BF6E
:104FA000B8F10A0F01D0264600E00E9E089B079A32
:104FB0002A44AEB1009833440B9301780A290DD0EE
:104FC0000D290BD0C15C189E039C0D2903D0641BD6
:104FD0000A297FF454AF01330B9303E0189E01E0DC
:104FE000189E00980BB15EB90BE008494A680BA9FE
:104FF000904736B101464846002210F0D1FA0246E9
:1050000032800B9823E7189E079AECE754000020A3
:10501000202C2E3B3A2D5F002DE9F041D0B11446F3
:10502000C2B1054620468846FBF7C5F990B1064651
:105030002846FBF7C0F907460B4841460268284658
:1050400090478119AA19F3198B4205D3EB5DD3550B
:10505000013FF8E7BDE8F081284421463246BDE82B
:10506000F04113F073BB00BF6000002003780246DC
:10507000232907D1032B0DD2012121EA0300DB00F4
:10508000D94005E0012B05D10120202901D10221C1
:1050900011707047002070472DE9FC4104460B4613
:1050A000CDE90011002000214FF0000822461CF03D
:1050B000B1F8451C0746284613F0EAF950B100F84C
:1050C0000780294622460646019B1CF0A3F830467D
:1050D000BDE8FC81FEE72DE9F047DDF82090984619
:1050E00015460E46824695B16F08504607FB086488
:1050F0002146C847012803DA00283D46F3D407E0DB
:1051000065F0010004EB08063844451CEBE7002479
:105110002046BDE8F0872DE9FE4F064612989846D6
:105120000292DDE91039DDF838C0DDE90CB20D4638
:1051300010F00201019125D1B9F1000F09D0C1078A
:1051400009D0BCF1000F0CBF10F00C0FA9F1010940
:1051500001E04FF0000930219A4238BF202A03D2E3
:105160000BF802100132F7E700F001073021144676
:1051700047B14C4505D21F2C03D80BF8041001345D
:10518000F6E72246C10633D50F9F41050DD462B123
:105190009A4218BF4A4508D1511E8A4618BFA2F14B
:1051A000020A102F18BF8A4600E09246102F07D13E
:1051B00010F020010BD1BAF1200F08D278210BE0BA
:1051C000022F0DD1BAF11F0F0AD8622104E039B1C4
:1051D000BAF1200F04D258210BF80A100AF1010A83
:1051E000BAF11F0F18D830210AF101020BF80A108A
:1051F0001F2A08D8BCF1000F01D02D2108E041077B
:1052000003D4010703D4924606E02B2100E02021BD
:1052100002F1010A0BF80210029F80071BD0ABF1CC
:105220000104BAF1000F07D014F80A00FDF737FDAA
:105230000137AAF1010AF4E7019810B93846BDE830
:10524000FE8F02984442E0194845F7D22020FDF72E
:1052500026FD0137F7E7029F54464C45DFD2202058
:10526000FDF71DFD01340137F7E72DE9F04F93B04D
:10527000DDF870C00F461D461646DDF88490DDE966
:105280001F23DDE91D1BBCF1000F08BF29F0100929
:105290000A95CDE90876BCF1000F04D119F48064B9
:1052A00001D000271DE009F020040DF12C0A84F044
:1052B000610404F1F6080024BCFBFBF6454606FB3E
:1052C0001BC707F0FE0EBEF10A0F38BF30253D4464
:1052D000671C0AF80450DC4503D31F2C3C46B44637
:1052E000EAD30BACCDE9021BCDE9004704A981E864
:1052F0000C0208AB0ECBFFF70EFF13B0BDE8F08F2A
:105300002DE9F04F93B0DDE91C65DDF89080209C1D
:1053100056EA050708BF28F01008002F07AF0FC78F
:1053200004D118F4806701D0002227E008F02000A3
:10533000219F4FF0000A0DF12C0B80F0610000F16D
:10534000F6093046294622463B46FAF7D3FF00FBD2
:10535000146202F0FE030A2B4B4638BF30231A4476
:10536000331B0BF80A200AF1010275EB070305D382
:10537000BAF11F0F924606460D46E2D30BA8CDE9BF
:1053800000021E98CDE90204229804902398CDE9EA
:10539000050807AB0FCBFFF7BEFE13B0BDE8F08FDB
:1053A0009A4238BF8854704770470000BCB5069DCC
:1053B00000F12007044614302EC7C4E90500184642
:1053C00023212A461DF0F6FE04F120030FCB1A44D8
:1053D0000E4B043A1DF0F6FD0799E0610898002293
:1053E0002346C4E91C2284F83420226384F8361052
:1053F00084F83510C4E90E202064CDE90022044A67
:1054000004F1440021461EF031FCBCBD7538020891
:10541000913A0208B0B50546FAF7D2FE296F044664
:1054200009B1284688472046BDE8B040FAF7CCBE0F
:105430002DE9F04F91B0DFF824640029DDF8689081
:10544000109392468B460DF1400818BF0646002780
:105450001878002800F0F581252840F0A080591C1C
:1054600000251091087820280CD023280FD02B2855
:1054700012D02D2815D0302818D1013145F0010562
:105480001091EFE7013145F008051091EAE701318D
:1054900045F010051091E5E7013145F00405109144
:1054A000E0E7013145F002051091DBE7A0F13002A1
:1054B000092A05D84046FEF7C9FC109904460CE0BD
:1054C0002A2809D159F8044B01311091002C44BF0E
:1054D00045F00205644200E0002408782E280DD132
:1054E000481C45F4806510904A78A2F13003092BDE
:1054F00006D84046FEF7AAFC109909E0002007E014
:105500002A2A30D159F8040B0231109120EAE070B8
:105510000C900878A0F168024FEA7202092A2CD890
:10552000DFE802F00912162B2B2B052B2B0501317E
:1055300045F4807514E04A1C10924878682816D10A
:10554000023145F0C0050BE0013145F4007507E07C
:105550004A1C109248786C280CD1023145F44075F1
:105560001091087809E000210C910146D1E745F03F
:10557000800501E045F480751146A0F162030E94A8
:10558000132B17D80822DFE803F033A7110A0A0A01
:105590000A110A0A0A0A0A351F0A0AB70A11FDF790
:1055A00065FA10980137431C109351E725F0100558
:1055B0000A2212E0252800F0CF80102278280CD093
:1055C00058280AD05028EAD111F8012F45F48875DF
:1055D000562A01D110910878102240F0080158296C
:1055E00008BF45F02005642806D0692804D001E0F2
:1055F0000222622025F00C05690548BF25F001054F
:10560000562812D0692801D0642834D1A8051CD4AA
:105610000E9B0C9CE8053BD4680600F19F80D9F8EE
:105620000000290648BF00B29AE059F8040BAAEB23
:105630000702416809680F91036800910BEB0701AD
:105640003046FFF7F5FE0744F7E009F10700FDF7E4
:1056500069FE0492002205920C9A06920E9ACDE9F8
:105660000725C20F11EBE07140EBE07381EAE071B6
:1056700083EAE07026E0A80518D4E8057CD4680623
:1056800000F1CC802806D9F8000048BF80B2C7E0FE
:1056900059F8040B0DF1040CCDE90435C10F0028B5
:1056A000ACE8160000D54042009070E009F1070018
:1056B0000C9BFDF737FE06930E9B04920022059289
:1056C000CDE90735CDE900100292304659463A46F9
:1056D0005346FFF715FE5CE0444615F002085AD128
:1056E00001257819421E0E98854256D2202059462F
:1056F0005346B0470135F4E70C9C2146002C08BF07
:105700004FF0FF31D9F80080002018F800201AB1BE
:10571000814201D00130F8E7A042214638BF01465E
:1057200015F480620A9208BF014615F002000D913F
:105730000B903ED14C464FF000090D980E9907EBA7
:1057400009054844884236D2202059462A46534605
:10575000B04709F10109F0E7252020E799F800009A
:10576000C10F0DF1040CCDE904350028ACE816009A
:1057700000D5404200905BE059F8040B00900020F7
:10578000CDE901020C9803900E98CDE90405FDF7D0
:10579000A8FC074651E0012501E00135174619F83C
:1057A000040BFDF763F90137B8F1000F1ED1A046D5
:1057B00043E03D4603E0A1460C9C01300D900A9F5A
:1057C00009F1040998F8000050B10FB144B1013C4F
:1057D00059462A465346B047013508F10108F1E71A
:1057E0000B9868B92F460DF1400826E0A0460E9CA4
:1057F000A54222D22020FDF739F901370135F7E71C
:1058000000240DF140080D980E992F19204488426C
:1058100013D22020FDF72AF90134F4E799F80000AB
:105820000E9900900C9B01AC00200DC4CDE904152D
:10583000FDF757FC074609F104091098431C109323
:1058400006E657453A465946534628BFAAF1010293
:105850000020B047384611B0BDE8F08FA9530008CA
:1058600080B14A1E11420CD108444942013801401E
:1058700008460C2998BF0C20B1F5803F28BF0020B6
:105880007047FEE70020704710B55B4C0120207088
:105890005A48FEF7E9FF014660680029BDE810405C
:1058A00018BF1BF0B9B91BF0A9B900BF2DE9F0472B
:1058B000514FB8681BF072F804467878DFF83CA1C5
:1058C00080F0010078705046FEF7CEFF06464FF09C
:1058D00000084FF6FF79002E00F0888096F842000D
:1058E000797887F80080C0F380028A4270D000F097
:1058F000FB0242EA8101020786F84210316B1AD49A
:10590000002918DC0A1916D4C00709D1716939B108
:1059100030468847316AB26A014410443162B0624D
:10592000B16809B13046884796F84200316B40F0C3
:10593000080086F842000819306349D4F16A8842A9
:10594000C8BF31633046F16988470146706A8142B9
:1059500004D0726871620AB130689047D6E90B01D1
:10596000814235DB96F84210B6F8405011F0020241
:1059700005D125B14D451CBF013DA6F84050B36B84
:105980002D0401D19BB192B9F56B6D423563FBB12A
:1059900012B9726B52423263B06381F00200B16A95
:1059A000F36286F84200306A3162B06210E050461D
:1059B0003146FEF7AEFFFFF767FFF16809B13046E9
:1059C0008847316909B130468847304612F0F2FD08
:1059D0003878012804D15046FEF746FF06467AE79C
:1059E00050463146FEF752FF064674E71AF0DCFFD8
:1059F000B860BDE8F08700BFC4020020200300208B
:105A0000B0B5054640680C4610B12146FFF7F8FFD7
:105A10002A6822B128462146BDE8B0401047B0BDF3
:105A200089B205F07DBB89B205F0D0BBB0B592B0AC
:105A30000446808FB0B101AD284604F053FF0C48F6
:105A40000194029001200B900020CDE90900094843
:105A5000089009480490A08F0C90284604F092FF0B
:105A600012B0B0BD204612B0BDE8B0401CF0DEBAA6
:105A7000A52002085BA90008A720020810B504466B
:105A8000406803280AD94968043121F00301084419
:105A90006060204600F038F8204610BDFEE7F0B503
:105AA0004B6823F003027F2A02D89A08002308E0FB
:105AB000B2FA82F3C3F11A04C3F11903E24082F08F
:105AC000200200EBC31404EB820454F83C5F5DB188
:105AD0000E46C860E96046F8085F01F10B0525F045
